{"abi":[{"type":"constructor","inputs":[{"name":"_pricefeed","type":"address","internalType":"address"}],"stateMutability":"nonpayable"},{"type":"function","name":"converttousd","inputs":[{"name":"ethAmount","type":"uint256","internalType":"uint256"}],"outputs":[{"name":"","type":"uint256","internalType":"uint256"}],"stateMutability":"view"},{"type":"function","name":"transaction","inputs":[{"name":"reciever","type":"address","internalType":"address"}],"outputs":[],"stateMutability":"payable"}],"bytecode":{"object":"0x608060405234801561001057600080fd5b5060405161043638038061043683398101604081905261002f91610054565b600080546001600160a01b0319166001600160a01b0392909216919091179055610084565b60006020828403121561006657600080fd5b81516001600160a01b038116811461007d57600080fd5b9392505050565b6103a3806100936000396000f3fe6080604052600436106100295760003560e01c8063566690ec1461002e5780638035121314610043575b600080fd5b61004161003c36600461023d565b610075565b005b34801561004f57600080fd5b5061006361005e366004610266565b610166565b60405190815260200160405180910390f35b600034116100ca5760405162461bcd60e51b815260206004820152601e60248201527f76616c75652073686f756c642062652067726561746572207468616e2030000060448201526064015b60405180910390fd5b6000816001600160a01b03163460405160006040518083038185875af1925050503d8060008114610117576040519150601f19603f3d011682016040523d82523d6000602084013e61011c565b606091505b50509050806101625760405162461bcd60e51b81526020600482015260126024820152711d1c985b9cd858dd1a5bdb8819985a5b195960721b60448201526064016100c1565b5050565b6000805461017e9083906001600160a01b0316610184565b92915050565b600080610190836101ba565b90506000670de0b6b3a76400006101a78684610295565b6101b191906102ac565b95945050505050565b600080826001600160a01b031663feaf968c6040518163ffffffff1660e01b815260040160a060405180830381865afa1580156101fb573d6000803e3d6000fd5b505050506040513d601f19601f8201168201806040525081019061021f91906102ed565b505050915050806402540be400610236919061033d565b9392505050565b60006020828403121561024f57600080fd5b81356001600160a01b038116811461023657600080fd5b60006020828403121561027857600080fd5b5035919050565b634e487b7160e01b600052601160045260246000fd5b808202811582820484141761017e5761017e61027f565b6000826102c957634e487b7160e01b600052601260045260246000fd5b500490565b805169ffffffffffffffffffff811681146102e857600080fd5b919050565b600080600080600060a0868803121561030557600080fd5b61030e866102ce565b9450602086015193506040860151925060608601519150610331608087016102ce565b90509295509295909350565b80820260008212600160ff1b841416156103595761035961027f565b818105831482151761017e5761017e61027f56fea2646970667358221220c2c81d8df0e91a2dca4f61b8678c534809c1b470ed59ceea00871b7fe34cc46264736f6c63430008130033","linkReferences":{}},"methodIdentifiers":{"converttousd(uint256)":"80351213","transaction(address)":"566690ec"},"id":27}